:100000009704010093840400170901001309890073
:10001000970201009382020113030000130F0000F6
:10002000930F00009303000093094000130E00009B
:10003000930E000063D23305139E2300330E9E00FF
:10004000939E2300B38E2E0183250E001386050098
:1000500013030000EF000004330FAF0003A60E00EF
:100060009305060013030000EF00C002B38FAF003A
:10007000938313006FF01FFC6358FF01130AB00055
:1000800023A042016F00C000130AA00023A0420178
:100090006F0000006358C0003303B3001306F6FF7F
:0C00A0006FF05FFF130503006780000095
:020000021000EC
:1000000003000000050000000100000009000000DE
:1000100001000000060000000200000003000000D4
:00000001FF
