:100000009704010093840400170901001309890073
:10001000970201009382020113030000130F0000F6
:10002000930F00009303000093094000130E00009B
:10003000930E000063DE3303139E2300330E9E00F5
:10004000939E2300B38E2E0183250E001386050098
:10005000EF004003330FAF0003A60E009305060028
:10006000EF004002B38FAF00938313006FF09FFC4B
:1000700063D4EF0113830F0013030F0023A062006A
:100080006F0000006358C0003303B3001306F6FF8F
:100090006FF05FFF1305030013030000678000008B
:020000021000EC
:1000000003000000050000000100000009000000DE
:1000100001000000060000000200000003000000D4
:00000001FF
