:10000000170102001301010017050100130585FF08
:1000100097050100938505FF13064000EF0080035C
:1000200093030500170501001305C5FE97050100A0
:10003000938545FEEF00000213030500635473002F
:1000400013830300970201009382C2FD23A0620084
:100050006F000000130181FE232A11002328A10153
:100060002326910023242101232231012320410151
:10007000130D000093040000130905009389050087
:10008000130A060063D244030325090083A509006F
:10009000EF00C003330DAD00938414001309490031
:1000A000938949006FF01FFE13050D008320410165
:1000B000032D01018324C10003298100832941000C
:1000C000032A010013018101678000006358B0001A
:1000D0003303A3009385F5FF6FF05FFF1305030063
:0800E00013030000678000001B
:020000021000EC
:1000000001000000060000000200000003000000E4
:1000100001000000010000000100000001000000DC
:00000001FF
