:100000009709010093890900170A0100130A4A01A0
:10001000130E000093047000170301001303030282
:10002000970300009383430763549E06B7050100BE
:100030002320B300930E000063D49E02130F000030
:10004000139F2E00330F3F0103250F006356B500A9
:100050009305050013860E00938E1E006FF0DFFDE2
:10006000930F0000931F2E00B38F4F01130F00005A
:10007000131F2600330F3F0103250F0023A0AF00FD
:10008000370501002320AF00130E1E006FF0DFF9CB
:100090006F0000006F00400093F6F50F9377350076
:1000A0006380060C638E0700834705006386070A9A
:1000B0006386D70A1305150093773500E39607FE8C
:1000C00093F5F50F93978500B3E5F5000327050039
:1000D000139305013363B3003708FFFE3346E30093
:1000E0001308F8EFB3070601B30507011346F6FF3F
:1000F0001347F7FFB3F7C70033F7E500B7888080F1
:10010000B3E7E70093880808B3F71701639A07027B
:10011000032745001305450033466700B307070171
:10012000B30506011347F7FF1346F6FFB3F7E700E1
:1001300033F6C500B3E7C700B3F71701E38A07FC3E
:1001400083470500638A07006386F6088347150026
:1001500013051500E39A07FE1305000067800000F1
:10016000638C070083470500E38A07FE130515002B
:1001700093773500E39807FE032705003706FFFE57
:100180001306F6EFB307C700B78680801347F7FF63
:10019000B3F7E70093860608B3F7D700639007022A
:1001A0000327450013054500B307C7001347F7FFB2
:1001B000B3F7E700B3F7D700E38407FE83470500F2
:1001C000E38E07F88347150013051500E39C07FE2F
:0801D000678000006780000059
:020000021000EC
:100000000400000032000000020000001E0000009A
:0C001000030000000100000006000000DA
:00000001FF
